:060000000A128A11FC2F18
:100F5C0083160313880183120313880108140B30C2
:100F6C00F2002630F1005D30F000F00BBB2FF10BDE
:100F7C00BB2FF20BBB2FC22F831203130810881444
:100F8C000B30F2002630F1005D30F000F00BCC2F6E
:100F9C00F10BCC2FF20BCC2FD32F83120313881011
:100FAC0008150B30F2002630F1005D30F000F00B2C
:100FBC00DD2FF10BDD2FF20BDD2FE42F831203134A
:100FCC00081108140B30F2002630F1005D30F000EF
:100FDC00F00BEE2FF10BEE2FF20BEE2FF52F831201
:100FEC0003130810B42F0A128A11002883010A1265
:040FFC008A11AE2F79
:02400E00FF3F72
:00000001FF
